{
  "_format": "hh-sol-artifact-1",
  "contractName": "MyToken",
  "sourceName": "contracts/token.sol",
  "abi": [
    {
      "inputs": [
        {
          "internalType": "address",
          "name": "initialOwner",
          "type": "address"
        }
      ],
      "stateMutability": "nonpayable",
      "type": "constructor"
    },
    {
      "inputs": [],
      "name": "ECDSAInvalidSignature",
      "type": "error"
    },
    {
      "inputs": [
        {
          "internalType": "uint256",
          "name": "length",
          "type": "uint256"
        }
      ],
      "name": "ECDSAInvalidSignatureLength",
      "type": "error"
    },
    {
      "inputs": [
        {
          "internalType": "bytes32",
          "name": "s",
          "type": "bytes32"
        }
      ],
      "name": "ECDSAInvalidSignatureS",
      "type": "error"
    },
    {
      "inputs": [
        {
          "internalType": "address",
          "name": "spender",
          "type": "address"
        },
        {
          "internalType": "uint256",
          "name": "allowance",
          "type": "uint256"
        },
        {
          "internalType": "uint256",
          "name": "needed",
          "type": "uint256"
        }
      ],
      "name": "ERC20InsufficientAllowance",
      "type": "error"
    },
    {
      "inputs": [
        {
          "internalType": "address",
          "name": "sender",
          "type": "address"
        },
        {
          "internalType": "uint256",
          "name": "balance",
          "type": "uint256"
        },
        {
          "internalType": "uint256",
          "name": "needed",
          "type": "uint256"
        }
      ],
      "name": "ERC20InsufficientBalance",
      "type": "error"
    },
    {
      "inputs": [
        {
          "internalType": "address",
          "name": "approver",
          "type": "address"
        }
      ],
      "name": "ERC20InvalidApprover",
      "type": "error"
    },
    {
      "inputs": [
        {
          "internalType": "address",
          "name": "receiver",
          "type": "address"
        }
      ],
      "name": "ERC20InvalidReceiver",
      "type": "error"
    },
    {
      "inputs": [
        {
          "internalType": "address",
          "name": "sender",
          "type": "address"
        }
      ],
      "name": "ERC20InvalidSender",
      "type": "error"
    },
    {
      "inputs": [
        {
          "internalType": "address",
          "name": "spender",
          "type": "address"
        }
      ],
      "name": "ERC20InvalidSpender",
      "type": "error"
    },
    {
      "inputs": [
        {
          "internalType": "uint256",
          "name": "deadline",
          "type": "uint256"
        }
      ],
      "name": "ERC2612ExpiredSignature",
      "type": "error"
    },
    {
      "inputs": [
        {
          "internalType": "address",
          "name": "signer",
          "type": "address"
        },
        {
          "internalType": "address",
          "name": "owner",
          "type": "address"
        }
      ],
      "name": "ERC2612InvalidSigner",
      "type": "error"
    },
    {
      "inputs": [
        {
          "internalType": "uint256",
          "name": "maxLoan",
          "type": "uint256"
        }
      ],
      "name": "ERC3156ExceededMaxLoan",
      "type": "error"
    },
    {
      "inputs": [
        {
          "internalType": "address",
          "name": "receiver",
          "type": "address"
        }
      ],
      "name": "ERC3156InvalidReceiver",
      "type": "error"
    },
    {
      "inputs": [
        {
          "internalType": "address",
          "name": "token",
          "type": "address"
        }
      ],
      "name": "ERC3156UnsupportedToken",
      "type": "error"
    },
    {
      "inputs": [],
      "name": "EnforcedPause",
      "type": "error"
    },
    {
      "inputs": [],
      "name": "ExpectedPause",
      "type": "error"
    },
    {
      "inputs": [
        {
          "internalType": "address",
          "name": "account",
          "type": "address"
        },
        {
          "internalType": "uint256",
          "name": "currentNonce",
          "type": "uint256"
        }
      ],
      "name": "InvalidAccountNonce",
      "type": "error"
    },
    {
      "inputs": [],
      "name": "InvalidShortString",
      "type": "error"
    },
    {
      "inputs": [
        {
          "internalType": "address",
          "name": "owner",
          "type": "address"
        }
      ],
      "name": "OwnableInvalidOwner",
      "type": "error"
    },
    {
      "inputs": [
        {
          "internalType": "address",
          "name": "account",
          "type": "address"
        }
      ],
      "name": "OwnableUnauthorizedAccount",
      "type": "error"
    },
    {
      "inputs": [
        {
          "internalType": "string",
          "name": "str",
          "type": "string"
        }
      ],
      "name": "StringTooLong",
      "type": "error"
    },
    {
      "anonymous": false,
      "inputs": [
        {
          "indexed": true,
          "internalType": "address",
          "name": "owner",
          "type": "address"
        },
        {
          "indexed": true,
          "internalType": "address",
          "name": "spender",
          "type": "address"
        },
        {
          "indexed": false,
          "internalType": "uint256",
          "name": "value",
          "type": "uint256"
        }
      ],
      "name": "Approval",
      "type": "event"
    },
    {
      "anonymous": false,
      "inputs": [],
      "name": "EIP712DomainChanged",
      "type": "event"
    },
    {
      "anonymous": false,
      "inputs": [
        {
          "indexed": true,
          "internalType": "address",
          "name": "previousOwner",
          "type": "address"
        },
        {
          "indexed": true,
          "internalType": "address",
          "name": "newOwner",
          "type": "address"
        }
      ],
      "name": "OwnershipTransferred",
      "type": "event"
    },
    {
      "anonymous": false,
      "inputs": [
        {
          "indexed": false,
          "internalType": "address",
          "name": "account",
          "type": "address"
        }
      ],
      "name": "Paused",
      "type": "event"
    },
    {
      "anonymous": false,
      "inputs": [
        {
          "indexed": true,
          "internalType": "address",
          "name": "from",
          "type": "address"
        },
        {
          "indexed": true,
          "internalType": "address",
          "name": "to",
          "type": "address"
        },
        {
          "indexed": false,
          "internalType": "uint256",
          "name": "value",
          "type": "uint256"
        }
      ],
      "name": "Transfer",
      "type": "event"
    },
    {
      "anonymous": false,
      "inputs": [
        {
          "indexed": false,
          "internalType": "address",
          "name": "account",
          "type": "address"
        }
      ],
      "name": "Unpaused",
      "type": "event"
    },
    {
      "inputs": [],
      "name": "DOMAIN_SEPARATOR",
      "outputs": [
        {
          "internalType": "bytes32",
          "name": "",
          "type": "bytes32"
        }
      ],
      "stateMutability": "view",
      "type": "function"
    },
    {
      "inputs": [
        {
          "internalType": "address",
          "name": "owner",
          "type": "address"
        },
        {
          "internalType": "address",
          "name": "spender",
          "type": "address"
        }
      ],
      "name": "allowance",
      "outputs": [
        {
          "internalType": "uint256",
          "name": "",
          "type": "uint256"
        }
      ],
      "stateMutability": "view",
      "type": "function"
    },
    {
      "inputs": [
        {
          "internalType": "address",
          "name": "spender",
          "type": "address"
        },
        {
          "internalType": "uint256",
          "name": "value",
          "type": "uint256"
        }
      ],
      "name": "approve",
      "outputs": [
        {
          "internalType": "bool",
          "name": "",
          "type": "bool"
        }
      ],
      "stateMutability": "nonpayable",
      "type": "function"
    },
    {
      "inputs": [
        {
          "internalType": "address",
          "name": "account",
          "type": "address"
        }
      ],
      "name": "balanceOf",
      "outputs": [
        {
          "internalType": "uint256",
          "name": "",
          "type": "uint256"
        }
      ],
      "stateMutability": "view",
      "type": "function"
    },
    {
      "inputs": [
        {
          "internalType": "uint256",
          "name": "value",
          "type": "uint256"
        }
      ],
      "name": "burn",
      "outputs": [],
      "stateMutability": "nonpayable",
      "type": "function"
    },
    {
      "inputs": [
        {
          "internalType": "address",
          "name": "account",
          "type": "address"
        },
        {
          "internalType": "uint256",
          "name": "value",
          "type": "uint256"
        }
      ],
      "name": "burnFrom",
      "outputs": [],
      "stateMutability": "nonpayable",
      "type": "function"
    },
    {
      "inputs": [],
      "name": "decimals",
      "outputs": [
        {
          "internalType": "uint8",
          "name": "",
          "type": "uint8"
        }
      ],
      "stateMutability": "view",
      "type": "function"
    },
    {
      "inputs": [],
      "name": "eip712Domain",
      "outputs": [
        {
          "internalType": "bytes1",
          "name": "fields",
          "type": "bytes1"
        },
        {
          "internalType": "string",
          "name": "name",
          "type": "string"
        },
        {
          "internalType": "string",
          "name": "version",
          "type": "string"
        },
        {
          "internalType": "uint256",
          "name": "chainId",
          "type": "uint256"
        },
        {
          "internalType": "address",
          "name": "verifyingContract",
          "type": "address"
        },
        {
          "internalType": "bytes32",
          "name": "salt",
          "type": "bytes32"
        },
        {
          "internalType": "uint256[]",
          "name": "extensions",
          "type": "uint256[]"
        }
      ],
      "stateMutability": "view",
      "type": "function"
    },
    {
      "inputs": [
        {
          "internalType": "address",
          "name": "token",
          "type": "address"
        },
        {
          "internalType": "uint256",
          "name": "value",
          "type": "uint256"
        }
      ],
      "name": "flashFee",
      "outputs": [
        {
          "internalType": "uint256",
          "name": "",
          "type": "uint256"
        }
      ],
      "stateMutability": "view",
      "type": "function"
    },
    {
      "inputs": [
        {
          "internalType": "contract IERC3156FlashBorrower",
          "name": "receiver",
          "type": "address"
        },
        {
          "internalType": "address",
          "name": "token",
          "type": "address"
        },
        {
          "internalType": "uint256",
          "name": "value",
          "type": "uint256"
        },
        {
          "internalType": "bytes",
          "name": "data",
          "type": "bytes"
        }
      ],
      "name": "flashLoan",
      "outputs": [
        {
          "internalType": "bool",
          "name": "",
          "type": "bool"
        }
      ],
      "stateMutability": "nonpayable",
      "type": "function"
    },
    {
      "inputs": [
        {
          "internalType": "address",
          "name": "token",
          "type": "address"
        }
      ],
      "name": "maxFlashLoan",
      "outputs": [
        {
          "internalType": "uint256",
          "name": "",
          "type": "uint256"
        }
      ],
      "stateMutability": "view",
      "type": "function"
    },
    {
      "inputs": [
        {
          "internalType": "address",
          "name": "to",
          "type": "address"
        },
        {
          "internalType": "uint256",
          "name": "amount",
          "type": "uint256"
        }
      ],
      "name": "mint",
      "outputs": [],
      "stateMutability": "nonpayable",
      "type": "function"
    },
    {
      "inputs": [],
      "name": "name",
      "outputs": [
        {
          "internalType": "string",
          "name": "",
          "type": "string"
        }
      ],
      "stateMutability": "view",
      "type": "function"
    },
    {
      "inputs": [
        {
          "internalType": "address",
          "name": "owner",
          "type": "address"
        }
      ],
      "name": "nonces",
      "outputs": [
        {
          "internalType": "uint256",
          "name": "",
          "type": "uint256"
        }
      ],
      "stateMutability": "view",
      "type": "function"
    },
    {
      "inputs": [],
      "name": "owner",
      "outputs": [
        {
          "internalType": "address",
          "name": "",
          "type": "address"
        }
      ],
      "stateMutability": "view",
      "type": "function"
    },
    {
      "inputs": [],
      "name": "pause",
      "outputs": [],
      "stateMutability": "nonpayable",
      "type": "function"
    },
    {
      "inputs": [],
      "name": "paused",
      "outputs": [
        {
          "internalType": "bool",
          "name": "",
          "type": "bool"
        }
      ],
      "stateMutability": "view",
      "type": "function"
    },
    {
      "inputs": [
        {
          "internalType": "address",
          "name": "owner",
          "type": "address"
        },
        {
          "internalType": "address",
          "name": "spender",
          "type": "address"
        },
        {
          "internalType": "uint256",
          "name": "value",
          "type": "uint256"
        },
        {
          "internalType": "uint256",
          "name": "deadline",
          "type": "uint256"
        },
        {
          "internalType": "uint8",
          "name": "v",
          "type": "uint8"
        },
        {
          "internalType": "bytes32",
          "name": "r",
          "type": "bytes32"
        },
        {
          "internalType": "bytes32",
          "name": "s",
          "type": "bytes32"
        }
      ],
      "name": "permit",
      "outputs": [],
      "stateMutability": "nonpayable",
      "type": "function"
    },
    {
      "inputs": [],
      "name": "renounceOwnership",
      "outputs": [],
      "stateMutability": "nonpayable",
      "type": "function"
    },
    {
      "inputs": [],
      "name": "symbol",
      "outputs": [
        {
          "internalType": "string",
          "name": "",
          "type": "string"
        }
      ],
      "stateMutability": "view",
      "type": "function"
    },
    {
      "inputs": [],
      "name": "totalSupply",
      "outputs": [
        {
          "internalType": "uint256",
          "name": "",
          "type": "uint256"
        }
      ],
      "stateMutability": "view",
      "type": "function"
    },
    {
      "inputs": [
        {
          "internalType": "address",
          "name": "to",
          "type": "address"
        },
        {
          "internalType": "uint256",
          "name": "value",
          "type": "uint256"
        }
      ],
      "name": "transfer",
      "outputs": [
        {
          "internalType": "bool",
          "name": "",
          "type": "bool"
        }
      ],
      "stateMutability": "nonpayable",
      "type": "function"
    },
    {
      "inputs": [
        {
          "internalType": "address",
          "name": "from",
          "type": "address"
        },
        {
          "internalType": "address",
          "name": "to",
          "type": "address"
        },
        {
          "internalType": "uint256",
          "name": "value",
          "type": "uint256"
        }
      ],
      "name": "transferFrom",
      "outputs": [
        {
          "internalType": "bool",
          "name": "",
          "type": "bool"
        }
      ],
      "stateMutability": "nonpayable",
      "type": "function"
    },
    {
      "inputs": [
        {
          "internalType": "address",
          "name": "newOwner",
          "type": "address"
        }
      ],
      "name": "transferOwnership",
      "outputs": [],
      "stateMutability": "nonpayable",
      "type": "function"
    },
    {
      "inputs": [],
      "name": "unpause",
      "outputs": [],
      "stateMutability": "nonpayable",
      "type": "function"
    }
  ],
  "bytecode": "0x6101606040523480156200001257600080fd5b50604051620039ed380380620039ed833981810160405281019062000038919062000893565b6040518060400160405280600781526020017f4d79546f6b656e00000000000000000000000000000000000000000000000000815250806040518060400160405280600181526020017f3100000000000000000000000000000000000000000000000000000000000000815250836040518060400160405280600781526020017f4d79546f6b656e000000000000000000000000000000000000000000000000008152506040518060400160405280600381526020017f4d544b0000000000000000000000000000000000000000000000000000000000815250816003908162000123919062000b3f565b50806004908162000135919062000b3f565b5050506000600560006101000a81548160ff021916908315150217905550600073ffffffffffffffffffffffffffffffffffffffff168173ffffffffffffffffffffffffffffffffffffffff1603620001c85760006040517f1e4fbdf7000000000000000000000000000000000000000000000000000000008152600401620001bf919062000c37565b60405180910390fd5b620001d981620002d060201b60201c565b50620001f06006836200039660201b90919060201c565b61012081815250506200020e6007826200039660201b90919060201c565b6101408181525050818051906020012060e08181525050808051906020012061010081815250504660a081815250506200024d620003ee60201b60201c565b608081815250503073ffffffffffffffffffffffffffffffffffffffff1660c08173ffffffffffffffffffffffffffffffffffffffff1681525050505050620002c933620002a06200044b60201b60201c565b600a620002ae919062000de4565b612710620002bd919062000e35565b6200045460201b60201c565b50620010f3565b6000600560019054906101000a900473ffffffffffffffffffffffffffffffffffffffff16905081600560016101000a81548173ffffffffffffffffffffffffffffffffffffffff021916908373ffffffffffffffffffffffffffffffffffffffff1602179055508173ffffffffffffffffffffffffffffffffffffffff168173ffffffffffffffffffffffffffffffffffffffff167f8be0079c531659141344cd1fd0a4f28419497f9722a3daafe3b4186f6b6457e060405160405180910390a35050565b6000602083511015620003bc57620003b483620004e160201b60201c565b9050620003e8565b82620003ce836200054e60201b60201c565b6000019081620003df919062000b3f565b5060ff60001b90505b92915050565b60007f8b73c3c69bb8fe3d512ecc4cf759cc79239f7b179b0ffacaa9a75d522b39400f60e0516101005146306040516020016200043095949392919062000eac565b60405160208183030381529060405280519060200120905090565b60006012905090565b600073ffffffffffffffffffffffffffffffffffffffff168273ffffffffffffffffffffffffffffffffffffffff1603620004c95760006040517fec442f05000000000000000000000000000000000000000000000000000000008152600401620004c0919062000c37565b60405180910390fd5b620004dd600083836200055860201b60201c565b5050565b600080829050601f815111156200053157826040517f305a27a900000000000000000000000000000000000000000000000000000000815260040162000528919062000f98565b60405180910390fd5b8051816200053f9062000fee565b60001c1760001b915050919050565b6000819050919050565b6200056b8383836200057060201b60201c565b505050565b620005806200059860201b60201c565b62000593838383620005e260201b60201c565b505050565b620005a86200081260201b60201c565b15620005e0576040517fd93c066500000000000000000000000000000000000000000000000000000000815260040160405180910390fd5b565b600073ffffffffffffffffffffffffffffffffffffffff168373ffffffffffffffffffffffffffffffffffffffff1603620006385780600260008282546200062b91906200105e565b925050819055506200070e565b60008060008573ffffffffffffffffffffffffffffffffffffffff1673ffffffffffffffffffffffffffffffffffffffff16815260200190815260200160002054905081811015620006c7578381836040517fe450d38c000000000000000000000000000000000000000000000000000000008152600401620006be9392919062001099565b60405180910390fd5b8181036000808673ffffffffffffffffffffffffffffffffffffffff1673ffffffffffffffffffffffffffffffffffffffff16815260200190815260200160002081905550505b600073ffffffffffffffffffffffffffffffffffffffff168273ffffffffffffffffffffffffffffffffffffffff1603620007595780600260008282540392505081905550620007a6565b806000808473ffffffffffffffffffffffffffffffffffffffff1673ffffffffffffffffffffffffffffffffffffffff168152602001908152602001600020600082825401925050819055505b8173ffffffffffffffffffffffffffffffffffffffff168373ffffffffffffffffffffffffffffffffffffffff167fddf252ad1be2c89b69c2b068fc378daa952ba7f163c4a11628f55a4df523b3ef83604051620008059190620010d6565b60405180910390a3505050565b6000600560009054906101000a900460ff16905090565b600080fd5b600073ffffffffffffffffffffffffffffffffffffffff82169050919050565b60006200085b826200082e565b9050919050565b6200086d816200084e565b81146200087957600080fd5b50565b6000815190506200088d8162000862565b92915050565b600060208284031215620008ac57620008ab62000829565b5b6000620008bc848285016200087c565b91505092915050565b600081519050919050565b7f4e487b7100000000000000000000000000000000000000000000000000000000600052604160045260246000fd5b7f4e487b7100000000000000000000000000000000000000000000000000000000600052602260045260246000fd5b600060028204905060018216806200094757607f821691505b6020821081036200095d576200095c620008ff565b5b50919050565b60008190508160005260206000209050919050565b60006020601f8301049050919050565b600082821b905092915050565b600060088302620009c77fffffffffffffffffffffffffffffffffffffffffffffffffffffffffffffffff8262000988565b620009d3868362000988565b95508019841693508086168417925050509392505050565b6000819050919050565b6000819050919050565b600062000a2062000a1a62000a1484620009eb565b620009f5565b620009eb565b9050919050565b6000819050919050565b62000a3c83620009ff565b62000a5462000a4b8262000a27565b84845462000995565b825550505050565b600090565b62000a6b62000a5c565b62000a7881848462000a31565b505050565b5b8181101562000aa05762000a9460008262000a61565b60018101905062000a7e565b5050565b601f82111562000aef5762000ab98162000963565b62000ac48462000978565b8101602085101562000ad4578190505b62000aec62000ae38562000978565b83018262000a7d565b50505b505050565b600082821c905092915050565b600062000b146000198460080262000af4565b1980831691505092915050565b600062000b2f838362000b01565b9150826002028217905092915050565b62000b4a82620008c5565b67ffffffffffffffff81111562000b665762000b65620008d0565b5b62000b7282546200092e565b62000b7f82828562000aa4565b600060209050601f83116001811462000bb7576000841562000ba2578287015190505b62000bae858262000b21565b86555062000c1e565b601f19841662000bc78662000963565b60005b8281101562000bf15784890151825560018201915060208501945060208101905062000bca565b8683101562000c11578489015162000c0d601f89168262000b01565b8355505b6001600288020188555050505b505050505050565b62000c31816200084e565b82525050565b600060208201905062000c4e600083018462000c26565b92915050565b7f4e487b7100000000000000000000000000000000000000000000000000000000600052601160045260246000fd5b60008160011c9050919050565b6000808291508390505b600185111562000ce25780860481111562000cba5762000cb962000c54565b5b600185161562000cca5780820291505b808102905062000cda8562000c83565b945062000c9a565b94509492505050565b60008262000cfd576001905062000dd0565b8162000d0d576000905062000dd0565b816001811462000d26576002811462000d315762000d67565b600191505062000dd0565b60ff84111562000d465762000d4562000c54565b5b8360020a91508482111562000d605762000d5f62000c54565b5b5062000dd0565b5060208310610133831016604e8410600b841016171562000da15782820a90508381111562000d9b5762000d9a62000c54565b5b62000dd0565b62000db0848484600162000c90565b9250905081840481111562000dca5762000dc962000c54565b5b81810290505b9392505050565b600060ff82169050919050565b600062000df182620009eb565b915062000dfe8362000dd7565b925062000e2d7fffffffffffffffffffffffffffffffffffffffffffffffffffffffffffffffff848462000ceb565b905092915050565b600062000e4282620009eb565b915062000e4f83620009eb565b925082820262000e5f81620009eb565b9150828204841483151762000e795762000e7862000c54565b5b5092915050565b6000819050919050565b62000e958162000e80565b82525050565b62000ea681620009eb565b82525050565b600060a08201905062000ec3600083018862000e8a565b62000ed2602083018762000e8a565b62000ee1604083018662000e8a565b62000ef0606083018562000e9b565b62000eff608083018462000c26565b9695505050505050565b600082825260208201905092915050565b60005b8381101562000f3a57808201518184015260208101905062000f1d565b60008484015250505050565b6000601f19601f8301169050919050565b600062000f6482620008c5565b62000f70818562000f09565b935062000f8281856020860162000f1a565b62000f8d8162000f46565b840191505092915050565b6000602082019050818103600083015262000fb4818462000f57565b905092915050565b600081519050919050565b6000819050602082019050919050565b600062000fe5825162000e80565b80915050919050565b600062000ffb8262000fbc565b82620010078462000fc7565b9050620010148162000fd7565b925060208210156200105757620010527fffffffffffffffffffffffffffffffffffffffffffffffffffffffffffffffff8360200360080262000988565b831692505b5050919050565b60006200106b82620009eb565b91506200107883620009eb565b925082820190508082111562001093576200109262000c54565b5b92915050565b6000606082019050620010b0600083018662000c26565b620010bf602083018562000e9b565b620010ce604083018462000e9b565b949350505050565b6000602082019050620010ed600083018462000e9b565b92915050565b60805160a05160c05160e05161010051610120516101405161289f6200114e60003960006113990152600061135e015260006116a10152600061168001526000610f3d01526000610f9301526000610fbc015261289f6000f3fe608060405234801561001057600080fd5b50600436106101735760003560e01c806370a08231116100de5780638da5cb5b11610097578063d505accf11610071578063d505accf14610430578063d9d98ce41461044c578063dd62ed3e1461047c578063f2fde38b146104ac57610173565b80638da5cb5b146103c457806395d89b41146103e2578063a9059cbb1461040057610173565b806370a0823114610310578063715018a61461034057806379cc67901461034a5780637ecebe00146103665780638456cb591461039657806384b0196e146103a057610173565b80633f4ba83a116101305780633f4ba83a1461025057806340c10f191461025a57806342966c68146102765780635c975abb146102925780635cffe9de146102b0578063613255ab146102e057610173565b806306fdde0314610178578063095ea7b31461019657806318160ddd146101c657806323b872dd146101e4578063313ce567146102145780633644e51514610232575b600080fd5b6101806104c8565b60405161018d9190611e4c565b60405180910390f35b6101b060048036038101906101ab9190611f0c565b61055a565b6040516101bd9190611f67565b60405180910390f35b6101ce61057d565b6040516101db9190611f91565b60405180910390f35b6101fe60048036038101906101f99190611fac565b610587565b60405161020b9190611f67565b60405180910390f35b61021c6105b6565b604051610229919061201b565b60405180910390f35b61023a6105bf565b604051610247919061204f565b60405180910390f35b6102586105ce565b005b610274600480360381019061026f9190611f0c565b6105e0565b005b610290600480360381019061028b919061206a565b6105f6565b005b61029a61060a565b6040516102a79190611f67565b60405180910390f35b6102ca60048036038101906102c5919061213a565b610621565b6040516102d79190611f67565b60405180910390f35b6102fa60048036038101906102f591906121c2565b61081e565b6040516103079190611f91565b60405180910390f35b61032a600480360381019061032591906121c2565b610895565b6040516103379190611f91565b60405180910390f35b6103486108dd565b005b610364600480360381019061035f9190611f0c565b6108f1565b005b610380600480360381019061037b91906121c2565b610911565b60405161038d9190611f91565b60405180910390f35b61039e610923565b005b6103a8610935565b6040516103bb97969594939291906122f7565b60405180910390f35b6103cc6109df565b6040516103d9919061237b565b60405180910390f35b6103ea610a09565b6040516103f79190611e4c565b60405180910390f35b61041a60048036038101906104159190611f0c565b610a9b565b6040516104279190611f67565b60405180910390f35b61044a600480360381019061044591906123ee565b610abe565b005b61046660048036038101906104619190611f0c565b610c06565b6040516104739190611f91565b60405180910390f35b61049660048036038101906104919190612490565b610c8a565b6040516104a39190611f91565b60405180910390f35b6104c660048036038101906104c191906121c2565b610d11565b005b6060600380546104d7906124ff565b80601f0160208091040260200160405190810160405280929190818152602001828054610503906124ff565b80156105505780601f1061052557610100808354040283529160200191610550565b820191906000526020600020905b81548152906001019060200180831161053357829003601f168201915b5050505050905090565b600080610565610d97565b9050610572818585610d9f565b600191505092915050565b6000600254905090565b600080610592610d97565b905061059f858285610db1565b6105aa858585610e45565b60019150509392505050565b60006012905090565b60006105c9610f39565b905090565b6105d6610ff0565b6105de611077565b565b6105e8610ff0565b6105f282826110da565b5050565b610607610601610d97565b8261115c565b50565b6000600560009054906101000a900460ff16905090565b60008061062d8661081e565b90508085111561067457806040517ffd9a760900000000000000000000000000000000000000000000000000000000815260040161066b9190611f91565b60405180910390fd5b60006106808787610c06565b905061068c88876110da565b7f439148f0bbc682ca079e46d6e2c2f0c1e3b820f1a291b069d8882abf8cf18dd98873ffffffffffffffffffffffffffffffffffffffff166323e30c8b6106d1610d97565b8a8a868b8b6040518763ffffffff1660e01b81526004016106f79695949392919061257d565b6020604051808303816000875af1158015610716573d6000803e3d6000fd5b505050506040513d601f19601f8201168201806040525081019061073a91906125ee565b1461077c57876040517f678c5b00000000000000000000000000000000000000000000000000000000008152600401610773919061237b565b60405180910390fd5b60006107866111de565b905061079e8930848a610799919061264a565b610db1565b60008214806107d95750600073ffffffffffffffffffffffffffffffffffffffff168173ffffffffffffffffffffffffffffffffffffffff16145b156107f8576107f38983896107ee919061264a565b61115c565b61080e565b610802898861115c565b61080d898284610e45565b5b6001935050505095945050505050565b60003073ffffffffffffffffffffffffffffffffffffffff168273ffffffffffffffffffffffffffffffffffffffff161461085a57600061088e565b61086261057d565b7fffffffffffffffffffffffffffffffffffffffffffffffffffffffffffffffff61088d919061267e565b5b9050919050565b60008060008373ffffffffffffffffffffffffffffffffffffffff1673ffffffffffffffffffffffffffffffffffffffff168152602001908152602001600020549050919050565b6108e5610ff0565b6108ef60006111e3565b565b610903826108fd610d97565b83610db1565b61090d828261115c565b5050565b600061091c826112a9565b9050919050565b61092b610ff0565b6109336112f2565b565b600060608060008060006060610949611355565b610951611390565b46306000801b600067ffffffffffffffff811115610972576109716126b2565b5b6040519080825280602002602001820160405280156109a05781602001602082028036833780820191505090505b507f0f00000000000000000000000000000000000000000000000000000000000000959493929190965096509650965096509650965090919293949596565b6000600560019054906101000a900473ffffffffffffffffffffffffffffffffffffffff16905090565b606060048054610a18906124ff565b80601f0160208091040260200160405190810160405280929190818152602001828054610a44906124ff565b8015610a915780601f10610a6657610100808354040283529160200191610a91565b820191906000526020600020905b815481529060010190602001808311610a7457829003601f168201915b5050505050905090565b600080610aa6610d97565b9050610ab3818585610e45565b600191505092915050565b83421115610b0357836040517f62791302000000000000000000000000000000000000000000000000000000008152600401610afa9190611f91565b60405180910390fd5b60007f6e71edae12b1b97f4d1f60370fef10105fa2faae0126114a169c64845d6126c9888888610b328c6113cb565b89604051602001610b48969594939291906126e1565b6040516020818303038152906040528051906020012090506000610b6b82611422565b90506000610b7b8287878761143c565b90508973ffffffffffffffffffffffffffffffffffffffff168173ffffffffffffffffffffffffffffffffffffffff1614610bef57808a6040517f4b800e46000000000000000000000000000000000000000000000000000000008152600401610be6929190612742565b60405180910390fd5b610bfa8a8a8a610d9f565b50505050505050505050565b60003073ffffffffffffffffffffffffffffffffffffffff168373ffffffffffffffffffffffffffffffffffffffff1614610c7857826040517fb5a7db92000000000000000000000000000000000000000000000000000000008152600401610c6f919061237b565b60405180910390fd5b610c82838361146c565b905092915050565b6000600160008473ffffffffffffffffffffffffffffffffffffffff1673ffffffffffffffffffffffffffffffffffffffff16815260200190815260200160002060008373ffffffffffffffffffffffffffffffffffffffff1673ffffffffffffffffffffffffffffffffffffffff16815260200190815260200160002054905092915050565b610d19610ff0565b600073ffffffffffffffffffffffffffffffffffffffff168173ffffffffffffffffffffffffffffffffffffffff1603610d8b5760006040517f1e4fbdf7000000000000000000000000000000000000000000000000000000008152600401610d82919061237b565b60405180910390fd5b610d94816111e3565b50565b600033905090565b610dac8383836001611474565b505050565b6000610dbd8484610c8a565b90507fffffffffffffffffffffffffffffffffffffffffffffffffffffffffffffffff8114610e3f5781811015610e2f578281836040517ffb8f41b2000000000000000000000000000000000000000000000000000000008152600401610e269392919061276b565b60405180910390fd5b610e3e84848484036000611474565b5b50505050565b600073ffffffffffffffffffffffffffffffffffffffff168373ffffffffffffffffffffffffffffffffffffffff1603610eb75760006040517f96c6fd1e000000000000000000000000000000000000000000000000000000008152600401610eae919061237b565b60405180910390fd5b600073ffffffffffffffffffffffffffffffffffffffff168273ffffffffffffffffffffffffffffffffffffffff1603610f295760006040517fec442f05000000000000000000000000000000000000000000000000000000008152600401610f20919061237b565b60405180910390fd5b610f3483838361164b565b505050565b60007f000000000000000000000000000000000000000000000000000000000000000073ffffffffffffffffffffffffffffffffffffffff163073ffffffffffffffffffffffffffffffffffffffff16148015610fb557507f000000000000000000000000000000000000000000000000000000000000000046145b15610fe2577f00000000000000000000000000000000000000000000000000000000000000009050610fed565b610fea61165b565b90505b90565b610ff8610d97565b73ffffffffffffffffffffffffffffffffffffffff166110166109df565b73ffffffffffffffffffffffffffffffffffffffff161461107557611039610d97565b6040517f118cdaa700000000000000000000000000000000000000000000000000000000815260040161106c919061237b565b60405180910390fd5b565b61107f6116f1565b6000600560006101000a81548160ff0219169083151502179055507f5db9ee0a495bf2e6ff9c91a7834c1ba4fdd244a5e8aa4e537bd38aeae4b073aa6110c3610d97565b6040516110d0919061237b565b60405180910390a1565b600073ffffffffffffffffffffffffffffffffffffffff168273ffffffffffffffffffffffffffffffffffffffff160361114c5760006040517fec442f05000000000000000000000000000000000000000000000000000000008152600401611143919061237b565b60405180910390fd5b6111586000838361164b565b5050565b600073ffffffffffffffffffffffffffffffffffffffff168273ffffffffffffffffffffffffffffffffffffffff16036111ce5760006040517f96c6fd1e0000000000000000000000000000000000000000000000000000000081526004016111c5919061237b565b60405180910390fd5b6111da8260008361164b565b5050565b600090565b6000600560019054906101000a900473ffffffffffffffffffffffffffffffffffffffff16905081600560016101000a81548173ffffffffffffffffffffffffffffffffffffffff021916908373ffffffffffffffffffffffffffffffffffffffff1602179055508173ffffffffffffffffffffffffffffffffffffffff168173ffffffffffffffffffffffffffffffffffffffff167f8be0079c531659141344cd1fd0a4f28419497f9722a3daafe3b4186f6b6457e060405160405180910390a35050565b6000600860008373ffffffffffffffffffffffffffffffffffffffff1673ffffffffffffffffffffffffffffffffffffffff168152602001908152602001600020549050919050565b6112fa611731565b6001600560006101000a81548160ff0219169083151502179055507f62e78cea01bee320cd4e420270b5ea74000d11b0c9f74754ebdbfc544b05a25861133e610d97565b60405161134b919061237b565b60405180910390a1565b606061138b60067f000000000000000000000000000000000000000000000000000000000000000061177290919063ffffffff16565b905090565b60606113c660077f000000000000000000000000000000000000000000000000000000000000000061177290919063ffffffff16565b905090565b6000600860008373ffffffffffffffffffffffffffffffffffffffff1673ffffffffffffffffffffffffffffffffffffffff1681526020019081526020016000206000815480929190600101919050559050919050565b600061143561142f610f39565b83611822565b9050919050565b60008060008061144e88888888611863565b92509250925061145e8282611957565b829350505050949350505050565b600092915050565b600073ffffffffffffffffffffffffffffffffffffffff168473ffffffffffffffffffffffffffffffffffffffff16036114e65760006040517fe602df050000000000000000000000000000000000000000000000000000000081526004016114dd919061237b565b60405180910390fd5b600073ffffffffffffffffffffffffffffffffffffffff168373ffffffffffffffffffffffffffffffffffffffff16036115585760006040517f94280d6200000000000000000000000000000000000000000000000000000000815260040161154f919061237b565b60405180910390fd5b81600160008673ffffffffffffffffffffffffffffffffffffffff1673ffffffffffffffffffffffffffffffffffffffff16815260200190815260200160002060008573ffffffffffffffffffffffffffffffffffffffff1673ffffffffffffffffffffffffffffffffffffffff168152602001908152602001600020819055508015611645578273ffffffffffffffffffffffffffffffffffffffff168473ffffffffffffffffffffffffffffffffffffffff167f8c5be1e5ebec7d5bd14f71427d1e84f3dd0314c0f7b2291e5b200ac8c7c3b9258460405161163c9190611f91565b60405180910390a35b50505050565b611656838383611abb565b505050565b60007f8b73c3c69bb8fe3d512ecc4cf759cc79239f7b179b0ffacaa9a75d522b39400f7f00000000000000000000000000000000000000000000000000000000000000007f000000000000000000000000000000000000000000000000000000000000000046306040516020016116d69594939291906127a2565b60405160208183030381529060405280519060200120905090565b6116f961060a565b61172f576040517f8dfc202b00000000000000000000000000000000000000000000000000000000815260040160405180910390fd5b565b61173961060a565b15611770576040517fd93c066500000000000000000000000000000000000000000000000000000000815260040160405180910390fd5b565b606060ff60001b831461178f5761178883611ad3565b905061181c565b81805461179b906124ff565b80601f01602080910402602001604051908101604052809291908181526020018280546117c7906124ff565b80156118145780601f106117e957610100808354040283529160200191611814565b820191906000526020600020905b8154815290600101906020018083116117f757829003601f168201915b505050505090505b92915050565b60006040517f190100000000000000000000000000000000000000000000000000000000000081528360028201528260228201526042812091505092915050565b60008060007f7fffffffffffffffffffffffffffffff5d576e7357a4501ddfe92f46681b20a08460001c11156118a357600060038592509250925061194d565b6000600188888888604051600081526020016040526040516118c894939291906127f5565b6020604051602081039080840390855afa1580156118ea573d6000803e3d6000fd5b505050602060405103519050600073ffffffffffffffffffffffffffffffffffffffff168173ffffffffffffffffffffffffffffffffffffffff160361193e57600060016000801b9350935093505061194d565b8060008060001b935093509350505b9450945094915050565b6000600381111561196b5761196a61283a565b5b82600381111561197e5761197d61283a565b5b0315611ab757600160038111156119985761199761283a565b5b8260038111156119ab576119aa61283a565b5b036119e2576040517ff645eedf00000000000000000000000000000000000000000000000000000000815260040160405180910390fd5b600260038111156119f6576119f561283a565b5b826003811115611a0957611a0861283a565b5b03611a4e578060001c6040517ffce698f7000000000000000000000000000000000000000000000000000000008152600401611a459190611f91565b60405180910390fd5b600380811115611a6157611a6061283a565b5b826003811115611a7457611a7361283a565b5b03611ab657806040517fd78bce0c000000000000000000000000000000000000000000000000000000008152600401611aad919061204f565b60405180910390fd5b5b5050565b611ac3611731565b611ace838383611b47565b505050565b60606000611ae083611d6c565b90506000602067ffffffffffffffff811115611aff57611afe6126b2565b5b6040519080825280601f01601f191660200182016040528015611b315781602001600182028036833780820191505090505b5090508181528360208201528092505050919050565b600073ffffffffffffffffffffffffffffffffffffffff168373ffffffffffffffffffffffffffffffffffffffff1603611b99578060026000828254611b8d919061264a565b92505081905550611c6c565b60008060008573ffffffffffffffffffffffffffffffffffffffff1673ffffffffffffffffffffffffffffffffffffffff16815260200190815260200160002054905081811015611c25578381836040517fe450d38c000000000000000000000000000000000000000000000000000000008152600401611c1c9392919061276b565b60405180910390fd5b8181036000808673ffffffffffffffffffffffffffffffffffffffff1673ffffffffffffffffffffffffffffffffffffffff16815260200190815260200160002081905550505b600073ffffffffffffffffffffffffffffffffffffffff168273ffffffffffffffffffffffffffffffffffffffff1603611cb55780600260008282540392505081905550611d02565b806000808473ffffffffffffffffffffffffffffffffffffffff1673ffffffffffffffffffffffffffffffffffffffff168152602001908152602001600020600082825401925050819055505b8173ffffffffffffffffffffffffffffffffffffffff168373ffffffffffffffffffffffffffffffffffffffff167fddf252ad1be2c89b69c2b068fc378daa952ba7f163c4a11628f55a4df523b3ef83604051611d5f9190611f91565b60405180910390a3505050565b60008060ff8360001c169050601f811115611db3576040517fb3512b0c00000000000000000000000000000000000000000000000000000000815260040160405180910390fd5b80915050919050565b600081519050919050565b600082825260208201905092915050565b60005b83811015611df6578082015181840152602081019050611ddb565b60008484015250505050565b6000601f19601f8301169050919050565b6000611e1e82611dbc565b611e288185611dc7565b9350611e38818560208601611dd8565b611e4181611e02565b840191505092915050565b60006020820190508181036000830152611e668184611e13565b905092915050565b600080fd5b600080fd5b600073ffffffffffffffffffffffffffffffffffffffff82169050919050565b6000611ea382611e78565b9050919050565b611eb381611e98565b8114611ebe57600080fd5b50565b600081359050611ed081611eaa565b92915050565b6000819050919050565b611ee981611ed6565b8114611ef457600080fd5b50565b600081359050611f0681611ee0565b92915050565b60008060408385031215611f2357611f22611e6e565b5b6000611f3185828601611ec1565b9250506020611f4285828601611ef7565b9150509250929050565b60008115159050919050565b611f6181611f4c565b82525050565b6000602082019050611f7c6000830184611f58565b92915050565b611f8b81611ed6565b82525050565b6000602082019050611fa66000830184611f82565b92915050565b600080600060608486031215611fc557611fc4611e6e565b5b6000611fd386828701611ec1565b9350506020611fe486828701611ec1565b9250506040611ff586828701611ef7565b9150509250925092565b600060ff82169050919050565b61201581611fff565b82525050565b6000602082019050612030600083018461200c565b92915050565b6000819050919050565b61204981612036565b82525050565b60006020820190506120646000830184612040565b92915050565b6000602082840312156120805761207f611e6e565b5b600061208e84828501611ef7565b91505092915050565b60006120a282611e98565b9050919050565b6120b281612097565b81146120bd57600080fd5b50565b6000813590506120cf816120a9565b92915050565b600080fd5b600080fd5b600080fd5b60008083601f8401126120fa576120f96120d5565b5b8235905067ffffffffffffffff811115612117576121166120da565b5b602083019150836001820283011115612133576121326120df565b5b9250929050565b60008060008060006080868803121561215657612155611e6e565b5b6000612164888289016120c0565b955050602061217588828901611ec1565b945050604061218688828901611ef7565b935050606086013567ffffffffffffffff8111156121a7576121a6611e73565b5b6121b3888289016120e4565b92509250509295509295909350565b6000602082840312156121d8576121d7611e6e565b5b60006121e684828501611ec1565b91505092915050565b60007fff0000000000000000000000000000000000000000000000000000000000000082169050919050565b612224816121ef565b82525050565b61223381611e98565b82525050565b600081519050919050565b600082825260208201905092915050565b6000819050602082019050919050565b61226e81611ed6565b82525050565b60006122808383612265565b60208301905092915050565b6000602082019050919050565b60006122a482612239565b6122ae8185612244565b93506122b983612255565b8060005b838110156122ea5781516122d18882612274565b97506122dc8361228c565b9250506001810190506122bd565b5085935050505092915050565b600060e08201905061230c600083018a61221b565b818103602083015261231e8189611e13565b905081810360408301526123328188611e13565b90506123416060830187611f82565b61234e608083018661222a565b61235b60a0830185612040565b81810360c083015261236d8184612299565b905098975050505050505050565b6000602082019050612390600083018461222a565b92915050565b61239f81611fff565b81146123aa57600080fd5b50565b6000813590506123bc81612396565b92915050565b6123cb81612036565b81146123d657600080fd5b50565b6000813590506123e8816123c2565b92915050565b600080600080600080600060e0888a03121561240d5761240c611e6e565b5b600061241b8a828b01611ec1565b975050602061242c8a828b01611ec1565b965050604061243d8a828b01611ef7565b955050606061244e8a828b01611ef7565b945050608061245f8a828b016123ad565b93505060a06124708a828b016123d9565b92505060c06124818a828b016123d9565b91505092959891949750929550565b600080604083850312156124a7576124a6611e6e565b5b60006124b585828601611ec1565b92505060206124c685828601611ec1565b9150509250929050565b7f4e487b7100000000000000000000000000000000000000000000000000000000600052602260045260246000fd5b6000600282049050600182168061251757607f821691505b60208210810361252a576125296124d0565b5b50919050565b600082825260208201905092915050565b82818337600083830152505050565b600061255c8385612530565b9350612569838584612541565b61257283611e02565b840190509392505050565b600060a082019050612592600083018961222a565b61259f602083018861222a565b6125ac6040830187611f82565b6125b96060830186611f82565b81810360808301526125cc818486612550565b9050979650505050505050565b6000815190506125e8816123c2565b92915050565b60006020828403121561260457612603611e6e565b5b6000612612848285016125d9565b91505092915050565b7f4e487b7100000000000000000000000000000000000000000000000000000000600052601160045260246000fd5b600061265582611ed6565b915061266083611ed6565b92508282019050808211156126785761267761261b565b5b92915050565b600061268982611ed6565b915061269483611ed6565b92508282039050818111156126ac576126ab61261b565b5b92915050565b7f4e487b7100000000000000000000000000000000000000000000000000000000600052604160045260246000fd5b600060c0820190506126f66000830189612040565b612703602083018861222a565b612710604083018761222a565b61271d6060830186611f82565b61272a6080830185611f82565b61273760a0830184611f82565b979650505050505050565b6000604082019050612757600083018561222a565b612764602083018461222a565b9392505050565b6000606082019050612780600083018661222a565b61278d6020830185611f82565b61279a6040830184611f82565b949350505050565b600060a0820190506127b76000830188612040565b6127c46020830187612040565b6127d16040830186612040565b6127de6060830185611f82565b6127eb608083018461222a565b9695505050505050565b600060808201905061280a6000830187612040565b612817602083018661200c565b6128246040830185612040565b6128316060830184612040565b95945050505050565b7f4e487b7100000000000000000000000000000000000000000000000000000000600052602160045260246000fdfea2646970667358221220dc571a795a607745ba9118f69024cae202baab1cb6eaefca1cc2c53773b0688664736f6c63430008180033",
  "linkReferences": {},
  "deployedLinkReferences": {}
}